{
  "contractName": "MyToken",
  "abi": [
    {
      "inputs": [],
      "stateMutability": "nonpayable",
      "type": "constructor"
    },
    {
      "anonymous": false,
      "inputs": [
        {
          "indexed": true,
          "internalType": "address",
          "name": "owner",
          "type": "address"
        },
        {
          "indexed": true,
          "internalType": "address",
          "name": "spender",
          "type": "address"
        },
        {
          "indexed": false,
          "internalType": "uint256",
          "name": "value",
          "type": "uint256"
        }
      ],
      "name": "Approval",
      "type": "event"
    },
    {
      "anonymous": false,
      "inputs": [
        {
          "indexed": true,
          "internalType": "address",
          "name": "previousOwner",
          "type": "address"
        },
        {
          "indexed": true,
          "internalType": "address",
          "name": "newOwner",
          "type": "address"
        }
      ],
      "name": "OwnershipTransferred",
      "type": "event"
    },
    {
      "anonymous": false,
      "inputs": [
        {
          "indexed": true,
          "internalType": "address",
          "name": "from",
          "type": "address"
        },
        {
          "indexed": true,
          "internalType": "address",
          "name": "to",
          "type": "address"
        },
        {
          "indexed": false,
          "internalType": "uint256",
          "name": "value",
          "type": "uint256"
        }
      ],
      "name": "Transfer",
      "type": "event"
    },
    {
      "inputs": [
        {
          "internalType": "address",
          "name": "owner",
          "type": "address"
        },
        {
          "internalType": "address",
          "name": "spender",
          "type": "address"
        }
      ],
      "name": "allowance",
      "outputs": [
        {
          "internalType": "uint256",
          "name": "",
          "type": "uint256"
        }
      ],
      "stateMutability": "view",
      "type": "function"
    },
    {
      "inputs": [
        {
          "internalType": "address",
          "name": "spender",
          "type": "address"
        },
        {
          "internalType": "uint256",
          "name": "amount",
          "type": "uint256"
        }
      ],
      "name": "approve",
      "outputs": [
        {
          "internalType": "bool",
          "name": "",
          "type": "bool"
        }
      ],
      "stateMutability": "nonpayable",
      "type": "function"
    },
    {
      "inputs": [
        {
          "internalType": "address",
          "name": "account",
          "type": "address"
        }
      ],
      "name": "balanceOf",
      "outputs": [
        {
          "internalType": "uint256",
          "name": "",
          "type": "uint256"
        }
      ],
      "stateMutability": "view",
      "type": "function"
    },
    {
      "inputs": [],
      "name": "decimals",
      "outputs": [
        {
          "internalType": "uint8",
          "name": "",
          "type": "uint8"
        }
      ],
      "stateMutability": "view",
      "type": "function"
    },
    {
      "inputs": [
        {
          "internalType": "address",
          "name": "spender",
          "type": "address"
        },
        {
          "internalType": "uint256",
          "name": "substractValue",
          "type": "uint256"
        }
      ],
      "name": "decreaseAllowance",
      "outputs": [
        {
          "internalType": "bool",
          "name": "",
          "type": "bool"
        }
      ],
      "stateMutability": "nonpayable",
      "type": "function"
    },
    {
      "inputs": [
        {
          "internalType": "address",
          "name": "spender",
          "type": "address"
        },
        {
          "internalType": "uint256",
          "name": "addedValue",
          "type": "uint256"
        }
      ],
      "name": "increaseAllowance",
      "outputs": [
        {
          "internalType": "bool",
          "name": "",
          "type": "bool"
        }
      ],
      "stateMutability": "nonpayable",
      "type": "function"
    },
    {
      "inputs": [],
      "name": "name",
      "outputs": [
        {
          "internalType": "string",
          "name": "",
          "type": "string"
        }
      ],
      "stateMutability": "view",
      "type": "function"
    },
    {
      "inputs": [],
      "name": "owner",
      "outputs": [
        {
          "internalType": "address",
          "name": "",
          "type": "address"
        }
      ],
      "stateMutability": "view",
      "type": "function"
    },
    {
      "inputs": [],
      "name": "renounceOwnership",
      "outputs": [],
      "stateMutability": "nonpayable",
      "type": "function"
    },
    {
      "inputs": [],
      "name": "symbol",
      "outputs": [
        {
          "internalType": "string",
          "name": "",
          "type": "string"
        }
      ],
      "stateMutability": "view",
      "type": "function"
    },
    {
      "inputs": [
        {
          "internalType": "address",
          "name": "to",
          "type": "address"
        },
        {
          "internalType": "uint256",
          "name": "amount",
          "type": "uint256"
        }
      ],
      "name": "transfer",
      "outputs": [
        {
          "internalType": "bool",
          "name": "",
          "type": "bool"
        }
      ],
      "stateMutability": "nonpayable",
      "type": "function"
    },
    {
      "inputs": [
        {
          "internalType": "address",
          "name": "from",
          "type": "address"
        },
        {
          "internalType": "address",
          "name": "to",
          "type": "address"
        },
        {
          "internalType": "uint256",
          "name": "amount",
          "type": "uint256"
        }
      ],
      "name": "transferFrom",
      "outputs": [
        {
          "internalType": "bool",
          "name": "",
          "type": "bool"
        }
      ],
      "stateMutability": "nonpayable",
      "type": "function"
    },
    {
      "inputs": [
        {
          "internalType": "address",
          "name": "newOwner",
          "type": "address"
        }
      ],
      "name": "transferOwnership",
      "outputs": [],
      "stateMutability": "nonpayable",
      "type": "function"
    },
    {
      "inputs": [
        {
          "internalType": "address",
          "name": "recipient",
          "type": "address"
        },
        {
          "internalType": "uint256",
          "name": "initialSupply",
          "type": "uint256"
        }
      ],
      "name": "mintToken",
      "outputs": [],
      "stateMutability": "nonpayable",
      "type": "function"
    },
    {
      "inputs": [],
      "name": "totalSupply",
      "outputs": [
        {
          "internalType": "uint256",
          "name": "",
          "type": "uint256"
        }
      ],
      "stateMutability": "view",
      "type": "function"
    },
    {
      "inputs": [],
      "name": "get",
      "outputs": [
        {
          "internalType": "uint256",
          "name": "",
          "type": "uint256"
        }
      ],
      "stateMutability": "view",
      "type": "function"
    }
  ],
  "bytecode": "0x60806040523480156200001157600080fd5b506040518060400160405280600481526020017f68656865000000000000000000000000000000000000000000000000000000008152506040518060400160405280600581526020017f736f727279000000000000000000000000000000000000000000000000000000815250816003908051906020019062000096929190620001a6565b508060049080519060200190620000af929190620001a6565b505050620000d2620000c6620000d860201b60201c565b620000e060201b60201c565b620002ba565b600033905090565b6000600560009054906101000a900473ffffffffffffffffffffffffffffffffffffffff16905081600560006101000a81548173ffffffffffffffffffffffffffffffffffffffff021916908373ffffffffffffffffffffffffffffffffffffffff1602179055508173ffffffffffffffffffffffffffffffffffffffff168173ffffffffffffffffffffffffffffffffffffffff167f8be0079c531659141344cd1fd0a4f28419497f9722a3daafe3b4186f6b6457e060405160405180910390a35050565b828054620001b49062000285565b90600052602060002090601f016020900481019282620001d8576000855562000224565b82601f10620001f357805160ff191683800117855562000224565b8280016001018555821562000224579182015b828111156200022357825182559160200191906001019062000206565b5b50905062000233919062000237565b5090565b5b808211156200025257600081600090555060010162000238565b5090565b7f4e487b7100000000000000000000000000000000000000000000000000000000600052602260045260246000fd5b600060028204905060018216806200029e57607f821691505b602082108103620002b457620002b362000256565b5b50919050565b6118c380620002ca6000396000f3fe608060405234801561001057600080fd5b50600436106101005760003560e01c8063715018a611610097578063a457c2d711610066578063a457c2d71461029f578063a9059cbb146102cf578063dd62ed3e146102ff578063f2fde38b1461032f57610100565b8063715018a61461023d57806379c65068146102475780638da5cb5b1461026357806395d89b411461028157610100565b8063313ce567116100d3578063313ce567146101a157806339509351146101bf5780636d4ce63c146101ef57806370a082311461020d57610100565b806306fdde0314610105578063095ea7b31461012357806318160ddd1461015357806323b872dd14610171575b600080fd5b61010d61034b565b60405161011a919061105c565b60405180910390f35b61013d60048036038101906101389190611117565b6103dd565b60405161014a9190611172565b60405180910390f35b61015b610400565b604051610168919061119c565b60405180910390f35b61018b600480360381019061018691906111b7565b61040a565b6040516101989190611172565b60405180910390f35b6101a9610439565b6040516101b69190611226565b60405180910390f35b6101d960048036038101906101d49190611117565b610442565b6040516101e69190611172565b60405180910390f35b6101f7610479565b604051610204919061119c565b60405180910390f35b61022760048036038101906102229190611241565b610483565b604051610234919061119c565b60405180910390f35b6102456104cb565b005b610261600480360381019061025c9190611117565b610553565b005b61026b6105e4565b604051610278919061127d565b60405180910390f35b61028961060e565b604051610296919061105c565b60405180910390f35b6102b960048036038101906102b49190611117565b6106a0565b6040516102c69190611172565b60405180910390f35b6102e960048036038101906102e49190611117565b610717565b6040516102f69190611172565b60405180910390f35b61031960048036038101906103149190611298565b61073a565b604051610326919061119c565b60405180910390f35b61034960048036038101906103449190611241565b6107c1565b005b60606003805461035a90611307565b80601f016020809104026020016040519081016040528092919081815260200182805461038690611307565b80156103d35780601f106103a8576101008083540402835291602001916103d3565b820191906000526020600020905b8154815290600101906020018083116103b657829003601f168201915b5050505050905090565b6000806103e86108b8565b90506103f58185856108c0565b600191505092915050565b6000600a54905090565b6000806104156108b8565b9050610422858285610a89565b61042d858585610b15565b60019150509392505050565b60006012905090565b60008061044d6108b8565b905061046e81858561045f858961073a565b6104699190611367565b6108c0565b600191505092915050565b6000600a54905090565b60008060008373ffffffffffffffffffffffffffffffffffffffff1673ffffffffffffffffffffffffffffffffffffffff168152602001908152602001600020549050919050565b6104d36108b8565b73ffffffffffffffffffffffffffffffffffffffff166104f16105e4565b73ffffffffffffffffffffffffffffffffffffffff1614610547576040517f08c379a000000000000000000000000000000000000000000000000000000000815260040161053e90611409565b60405180910390fd5b6105516000610d94565b565b61055b6108b8565b73ffffffffffffffffffffffffffffffffffffffff166105796105e4565b73ffffffffffffffffffffffffffffffffffffffff16146105cf576040517f08c379a00000000000000000000000000000000000000000000000000000000081526004016105c690611409565b60405180910390fd5b80600a819055506105e08282610e5a565b5050565b6000600560009054906101000a900473ffffffffffffffffffffffffffffffffffffffff16905090565b60606004805461061d90611307565b80601f016020809104026020016040519081016040528092919081815260200182805461064990611307565b80156106965780601f1061066b57610100808354040283529160200191610696565b820191906000526020600020905b81548152906001019060200180831161067957829003601f168201915b5050505050905090565b6000806106ab6108b8565b905060006106b9828661073a565b9050838110156106fe576040517f08c379a00000000000000000000000000000000000000000000000000000000081526004016106f59061149b565b60405180910390fd5b61070b82868684036108c0565b60019250505092915050565b6000806107226108b8565b905061072f818585610b15565b600191505092915050565b6000600160008473ffffffffffffffffffffffffffffffffffffffff1673ffffffffffffffffffffffffffffffffffffffff16815260200190815260200160002060008373ffffffffffffffffffffffffffffffffffffffff1673ffffffffffffffffffffffffffffffffffffffff16815260200190815260200160002054905092915050565b6107c96108b8565b73ffffffffffffffffffffffffffffffffffffffff166107e76105e4565b73ffffffffffffffffffffffffffffffffffffffff161461083d576040517f08c379a000000000000000000000000000000000000000000000000000000000815260040161083490611409565b60405180910390fd5b600073ffffffffffffffffffffffffffffffffffffffff168173ffffffffffffffffffffffffffffffffffffffff16036108ac576040517f08c379a00000000000000000000000000000000000000000000000000000000081526004016108a39061152d565b60405180910390fd5b6108b581610d94565b50565b600033905090565b600073ffffffffffffffffffffffffffffffffffffffff168373ffffffffffffffffffffffffffffffffffffffff160361092f576040517f08c379a000000000000000000000000000000000000000000000000000000000815260040161092690611599565b60405180910390fd5b600073ffffffffffffffffffffffffffffffffffffffff168273ffffffffffffffffffffffffffffffffffffffff160361099e576040517f08c379a000000000000000000000000000000000000000000000000000000000815260040161099590611605565b60405180910390fd5b80600160008573ffffffffffffffffffffffffffffffffffffffff1673ffffffffffffffffffffffffffffffffffffffff16815260200190815260200160002060008473ffffffffffffffffffffffffffffffffffffffff1673ffffffffffffffffffffffffffffffffffffffff168152602001908152602001600020819055508173ffffffffffffffffffffffffffffffffffffffff168373ffffffffffffffffffffffffffffffffffffffff167f8c5be1e5ebec7d5bd14f71427d1e84f3dd0314c0f7b2291e5b200ac8c7c3b92583604051610a7c919061119c565b60405180910390a3505050565b6000610a95848461073a565b90507fffffffffffffffffffffffffffffffffffffffffffffffffffffffffffffffff8114610b0f5781811015610b01576040517f08c379a0000000000000000000000000000000000000000000000000000000008152600401610af890611671565b60405180910390fd5b610b0e84848484036108c0565b5b50505050565b600073ffffffffffffffffffffffffffffffffffffffff168373ffffffffffffffffffffffffffffffffffffffff1603610b84576040517f08c379a0000000000000000000000000000000000000000000000000000000008152600401610b7b90611703565b60405180910390fd5b600073ffffffffffffffffffffffffffffffffffffffff168273ffffffffffffffffffffffffffffffffffffffff1603610bf3576040517f08c379a0000000000000000000000000000000000000000000000000000000008152600401610bea9061176f565b60405180910390fd5b610bfe838383610fb9565b60008060008573ffffffffffffffffffffffffffffffffffffffff1673ffffffffffffffffffffffffffffffffffffffff16815260200190815260200160002054905081811015610c84576040517f08c379a0000000000000000000000000000000000000000000000000000000008152600401610c7b90611801565b60405180910390fd5b8181036000808673ffffffffffffffffffffffffffffffffffffffff1673ffffffffffffffffffffffffffffffffffffffff16815260200190815260200160002081905550816000808573ffffffffffffffffffffffffffffffffffffffff1673ffffffffffffffffffffffffffffffffffffffff1681526020019081526020016000206000828254610d179190611367565b925050819055508273ffffffffffffffffffffffffffffffffffffffff168473ffffffffffffffffffffffffffffffffffffffff167fddf252ad1be2c89b69c2b068fc378daa952ba7f163c4a11628f55a4df523b3ef84604051610d7b919061119c565b60405180910390a3610d8e848484610fbe565b50505050565b6000600560009054906101000a900473ffffffffffffffffffffffffffffffffffffffff16905081600560006101000a81548173ffffffffffffffffffffffffffffffffffffffff021916908373ffffffffffffffffffffffffffffffffffffffff1602179055508173ffffffffffffffffffffffffffffffffffffffff168173ffffffffffffffffffffffffffffffffffffffff167f8be0079c531659141344cd1fd0a4f28419497f9722a3daafe3b4186f6b6457e060405160405180910390a35050565b600073ffffffffffffffffffffffffffffffffffffffff168273ffffffffffffffffffffffffffffffffffffffff1603610ec9576040517f08c379a0000000000000000000000000000000000000000000000000000000008152600401610ec09061186d565b60405180910390fd5b610ed560008383610fb9565b8060026000828254610ee79190611367565b92505081905550806000808473ffffffffffffffffffffffffffffffffffffffff1673ffffffffffffffffffffffffffffffffffffffff1681526020019081526020016000206000828254610f3c9190611367565b925050819055508173ffffffffffffffffffffffffffffffffffffffff16600073ffffffffffffffffffffffffffffffffffffffff167fddf252ad1be2c89b69c2b068fc378daa952ba7f163c4a11628f55a4df523b3ef83604051610fa1919061119c565b60405180910390a3610fb560008383610fbe565b5050565b505050565b505050565b600081519050919050565b600082825260208201905092915050565b60005b83811015610ffd578082015181840152602081019050610fe2565b8381111561100c576000848401525b50505050565b6000601f19601f8301169050919050565b600061102e82610fc3565b6110388185610fce565b9350611048818560208601610fdf565b61105181611012565b840191505092915050565b600060208201905081810360008301526110768184611023565b905092915050565b600080fd5b600073ffffffffffffffffffffffffffffffffffffffff82169050919050565b60006110ae82611083565b9050919050565b6110be816110a3565b81146110c957600080fd5b50565b6000813590506110db816110b5565b92915050565b6000819050919050565b6110f4816110e1565b81146110ff57600080fd5b50565b600081359050611111816110eb565b92915050565b6000806040838503121561112e5761112d61107e565b5b600061113c858286016110cc565b925050602061114d85828601611102565b9150509250929050565b60008115159050919050565b61116c81611157565b82525050565b60006020820190506111876000830184611163565b92915050565b611196816110e1565b82525050565b60006020820190506111b1600083018461118d565b92915050565b6000806000606084860312156111d0576111cf61107e565b5b60006111de868287016110cc565b93505060206111ef868287016110cc565b925050604061120086828701611102565b9150509250925092565b600060ff82169050919050565b6112208161120a565b82525050565b600060208201905061123b6000830184611217565b92915050565b6000602082840312156112575761125661107e565b5b6000611265848285016110cc565b91505092915050565b611277816110a3565b82525050565b6000602082019050611292600083018461126e565b92915050565b600080604083850312156112af576112ae61107e565b5b60006112bd858286016110cc565b92505060206112ce858286016110cc565b9150509250929050565b7f4e487b7100000000000000000000000000000000000000000000000000000000600052602260045260246000fd5b6000600282049050600182168061131f57607f821691505b602082108103611332576113316112d8565b5b50919050565b7f4e487b7100000000000000000000000000000000000000000000000000000000600052601160045260246000fd5b6000611372826110e1565b915061137d836110e1565b9250827fffffffffffffffffffffffffffffffffffffffffffffffffffffffffffffffff038211156113b2576113b1611338565b5b828201905092915050565b7f4f776e61626c653a2063616c6c6572206973206e6f7420746865206f776e6572600082015250565b60006113f3602083610fce565b91506113fe826113bd565b602082019050919050565b60006020820190508181036000830152611422816113e6565b9050919050565b7f45524332303a20646563726561736520616c6c6f77616e63652062656c6f772060008201527f7a65726f00000000000000000000000000000000000000000000000000000000602082015250565b6000611485602483610fce565b915061149082611429565b604082019050919050565b600060208201905081810360008301526114b481611478565b9050919050565b7f4f776e61626c653a206e6577206f776e657220697320746865207a65726f206160008201527f6464726573730000000000000000000000000000000000000000000000000000602082015250565b6000611517602683610fce565b9150611522826114bb565b604082019050919050565b600060208201905081810360008301526115468161150a565b9050919050565b7f45524332303a20617070726f76652066726f6d207a65726f2061646472657373600082015250565b6000611583602083610fce565b915061158e8261154d565b602082019050919050565b600060208201905081810360008301526115b281611576565b9050919050565b7f45524332303a20617070726f766520746f207a65726f20616464726573730000600082015250565b60006115ef601e83610fce565b91506115fa826115b9565b602082019050919050565b6000602082019050818103600083015261161e816115e2565b9050919050565b7f45524332303a20696e73756666696369656e7420616c6c6f77616e6365000000600082015250565b600061165b601d83610fce565b915061166682611625565b602082019050919050565b6000602082019050818103600083015261168a8161164e565b9050919050565b7f45524332303a207472616e736665722066726f6d207a65726f2061646472657360008201527f7300000000000000000000000000000000000000000000000000000000000000602082015250565b60006116ed602183610fce565b91506116f882611691565b604082019050919050565b6000602082019050818103600083015261171c816116e0565b9050919050565b7f45524332303a207472616e7366657220746f207a65726f206164647265737300600082015250565b6000611759601f83610fce565b915061176482611723565b602082019050919050565b600060208201905081810360008301526117888161174c565b9050919050565b7f45524332303a207472616e7366657220616d6f756e742065786365656420626160008201527f6c616e6365000000000000000000000000000000000000000000000000000000602082015250565b60006117eb602583610fce565b91506117f68261178f565b604082019050919050565b6000602082019050818103600083015261181a816117de565b9050919050565b7f45524332303a206d696e7420746f20746865207a65726f206164647265737300600082015250565b6000611857601f83610fce565b915061186282611821565b602082019050919050565b600060208201905081810360008301526118868161184a565b905091905056fea2646970667358221220908b3222dda72f15276f1acfa4ec5548d6ec422a017e526fa478c63515664a5f64736f6c634300080d0033",
  "immutableReferences": {},
  "source": "// SPDX-License-Identifier: Unlicenced\n\npragma solidity ^0.8.0;\n\nimport \"./erc20/ERC20.sol\";\nimport \"./access/Ownable.sol\";\n\n// ERC20\ncontract MyToken is ERC20, Ownable{\n    // \n    mapping(address => uint256) private _balances;\n    // \n    mapping(address => mapping(address => uint256)) private _allowance;\n\n    // \n    string private _name;\n    // \n    string private _symbol;\n\n    // \n    // constructor(string memory name_, string memory symbol_) {\n    //     _name = name_;\n    //     _symbol = symbol_;\n    // }\n\n    // \n    uint256 private _totalSupply;\n\n    // \n    constructor() ERC20(\n        \"hehe\", \"sorry\"\n    ) {}\n\n    // \n    function mintToken(address recipient, uint256 initialSupply ) public onlyOwner {\n        _totalSupply = initialSupply;\n\n        _mint(recipient, initialSupply);\n    }\n\n    // \n    function totalSupply() public view override returns (uint256) {\n        return _totalSupply;\n    }\n\n    // \n    function get() public view returns (uint256) {\n        return _totalSupply;\n    }\n\n}\n",
  "sourcePath": "/Users/takagihrs/Desktop/MyProject/dapp/truffle-boxed/contracts/MyContract.sol",
  "compiler": {
    "name": "solc",
    "version": "0.8.13+commit.abaa5c0e.Emscripten.clang"
  },
  "schemaVersion": "3.4.7",
  "updatedAt": "2022-04-27T12:21:55.829Z",
  "devdoc": {
    "kind": "dev",
    "methods": {},
    "version": 1
  },
  "userdoc": {
    "kind": "user",
    "methods": {},
    "version": 1
  }
}