{
  "contractName": "MyToken",
  "abi": [
    {
      "inputs": [],
      "stateMutability": "nonpayable",
      "type": "constructor"
    },
    {
      "anonymous": false,
      "inputs": [
        {
          "indexed": true,
          "internalType": "address",
          "name": "owner",
          "type": "address"
        },
        {
          "indexed": true,
          "internalType": "address",
          "name": "spender",
          "type": "address"
        },
        {
          "indexed": false,
          "internalType": "uint256",
          "name": "value",
          "type": "uint256"
        }
      ],
      "name": "Approval",
      "type": "event"
    },
    {
      "anonymous": false,
      "inputs": [
        {
          "indexed": true,
          "internalType": "address",
          "name": "previousOwner",
          "type": "address"
        },
        {
          "indexed": true,
          "internalType": "address",
          "name": "newOwner",
          "type": "address"
        }
      ],
      "name": "OwnershipTransferred",
      "type": "event"
    },
    {
      "anonymous": false,
      "inputs": [
        {
          "indexed": true,
          "internalType": "address",
          "name": "from",
          "type": "address"
        },
        {
          "indexed": true,
          "internalType": "address",
          "name": "to",
          "type": "address"
        },
        {
          "indexed": false,
          "internalType": "uint256",
          "name": "value",
          "type": "uint256"
        }
      ],
      "name": "Transfer",
      "type": "event"
    },
    {
      "inputs": [
        {
          "internalType": "address",
          "name": "owner",
          "type": "address"
        },
        {
          "internalType": "address",
          "name": "spender",
          "type": "address"
        }
      ],
      "name": "allowance",
      "outputs": [
        {
          "internalType": "uint256",
          "name": "",
          "type": "uint256"
        }
      ],
      "stateMutability": "view",
      "type": "function",
      "constant": true
    },
    {
      "inputs": [
        {
          "internalType": "address",
          "name": "spender",
          "type": "address"
        },
        {
          "internalType": "uint256",
          "name": "amount",
          "type": "uint256"
        }
      ],
      "name": "approve",
      "outputs": [
        {
          "internalType": "bool",
          "name": "",
          "type": "bool"
        }
      ],
      "stateMutability": "nonpayable",
      "type": "function"
    },
    {
      "inputs": [
        {
          "internalType": "address",
          "name": "account",
          "type": "address"
        }
      ],
      "name": "balanceOf",
      "outputs": [
        {
          "internalType": "uint256",
          "name": "",
          "type": "uint256"
        }
      ],
      "stateMutability": "view",
      "type": "function",
      "constant": true
    },
    {
      "inputs": [],
      "name": "decimals",
      "outputs": [
        {
          "internalType": "uint8",
          "name": "",
          "type": "uint8"
        }
      ],
      "stateMutability": "view",
      "type": "function",
      "constant": true
    },
    {
      "inputs": [
        {
          "internalType": "address",
          "name": "spender",
          "type": "address"
        },
        {
          "internalType": "uint256",
          "name": "substractValue",
          "type": "uint256"
        }
      ],
      "name": "decreaseAllowance",
      "outputs": [
        {
          "internalType": "bool",
          "name": "",
          "type": "bool"
        }
      ],
      "stateMutability": "nonpayable",
      "type": "function"
    },
    {
      "inputs": [
        {
          "internalType": "address",
          "name": "spender",
          "type": "address"
        },
        {
          "internalType": "uint256",
          "name": "addedValue",
          "type": "uint256"
        }
      ],
      "name": "increaseAllowance",
      "outputs": [
        {
          "internalType": "bool",
          "name": "",
          "type": "bool"
        }
      ],
      "stateMutability": "nonpayable",
      "type": "function"
    },
    {
      "inputs": [],
      "name": "name",
      "outputs": [
        {
          "internalType": "string",
          "name": "",
          "type": "string"
        }
      ],
      "stateMutability": "view",
      "type": "function",
      "constant": true
    },
    {
      "inputs": [],
      "name": "owner",
      "outputs": [
        {
          "internalType": "address",
          "name": "",
          "type": "address"
        }
      ],
      "stateMutability": "view",
      "type": "function",
      "constant": true
    },
    {
      "inputs": [],
      "name": "renounceOwnership",
      "outputs": [],
      "stateMutability": "nonpayable",
      "type": "function"
    },
    {
      "inputs": [],
      "name": "symbol",
      "outputs": [
        {
          "internalType": "string",
          "name": "",
          "type": "string"
        }
      ],
      "stateMutability": "view",
      "type": "function",
      "constant": true
    },
    {
      "inputs": [
        {
          "internalType": "address",
          "name": "to",
          "type": "address"
        },
        {
          "internalType": "uint256",
          "name": "amount",
          "type": "uint256"
        }
      ],
      "name": "transfer",
      "outputs": [
        {
          "internalType": "bool",
          "name": "",
          "type": "bool"
        }
      ],
      "stateMutability": "nonpayable",
      "type": "function"
    },
    {
      "inputs": [
        {
          "internalType": "address",
          "name": "from",
          "type": "address"
        },
        {
          "internalType": "address",
          "name": "to",
          "type": "address"
        },
        {
          "internalType": "uint256",
          "name": "amount",
          "type": "uint256"
        }
      ],
      "name": "transferFrom",
      "outputs": [
        {
          "internalType": "bool",
          "name": "",
          "type": "bool"
        }
      ],
      "stateMutability": "nonpayable",
      "type": "function"
    },
    {
      "inputs": [
        {
          "internalType": "address",
          "name": "newOwner",
          "type": "address"
        }
      ],
      "name": "transferOwnership",
      "outputs": [],
      "stateMutability": "nonpayable",
      "type": "function"
    },
    {
      "inputs": [
        {
          "internalType": "address",
          "name": "recipient",
          "type": "address"
        },
        {
          "internalType": "uint256",
          "name": "initialSupply",
          "type": "uint256"
        }
      ],
      "name": "mingToken",
      "outputs": [],
      "stateMutability": "nonpayable",
      "type": "function"
    },
    {
      "inputs": [],
      "name": "totalSupply",
      "outputs": [
        {
          "internalType": "uint256",
          "name": "",
          "type": "uint256"
        }
      ],
      "stateMutability": "view",
      "type": "function",
      "constant": true
    },
    {
      "inputs": [],
      "name": "get",
      "outputs": [
        {
          "internalType": "uint256",
          "name": "",
          "type": "uint256"
        }
      ],
      "stateMutability": "view",
      "type": "function",
      "constant": true
    }
  ],
  "bytecode": "0x60806040523480156200001157600080fd5b506040518060400160405280600481526020017f68656865000000000000000000000000000000000000000000000000000000008152506040518060400160405280600581526020017f736f727279000000000000000000000000000000000000000000000000000000815250816003908051906020019062000096929190620001a6565b508060049080519060200190620000af929190620001a6565b505050620000d2620000c6620000d860201b60201c565b620000e060201b60201c565b620002ba565b600033905090565b6000600560009054906101000a900473ffffffffffffffffffffffffffffffffffffffff16905081600560006101000a81548173ffffffffffffffffffffffffffffffffffffffff021916908373ffffffffffffffffffffffffffffffffffffffff1602179055508173ffffffffffffffffffffffffffffffffffffffff168173ffffffffffffffffffffffffffffffffffffffff167f8be0079c531659141344cd1fd0a4f28419497f9722a3daafe3b4186f6b6457e060405160405180910390a35050565b828054620001b49062000285565b90600052602060002090601f016020900481019282620001d8576000855562000224565b82601f10620001f357805160ff191683800117855562000224565b8280016001018555821562000224579182015b828111156200022357825182559160200191906001019062000206565b5b50905062000233919062000237565b5090565b5b808211156200025257600081600090555060010162000238565b5090565b7f4e487b7100000000000000000000000000000000000000000000000000000000600052602260045260246000fd5b600060028204905060018216806200029e57607f821691505b602082108103620002b457620002b362000256565b5b50919050565b61185980620002ca6000396000f3fe608060405234801561001057600080fd5b50600436106101005760003560e01c8063715018a611610097578063a9059cbb11610066578063a9059cbb146102b3578063ce38606c146102e3578063dd62ed3e146102ff578063f2fde38b1461032f57610100565b8063715018a61461023d5780638da5cb5b1461024757806395d89b4114610265578063a457c2d71461028357610100565b8063313ce567116100d3578063313ce567146101a157806339509351146101bf5780636d4ce63c146101ef57806370a082311461020d57610100565b806306fdde0314610105578063095ea7b31461012357806318160ddd1461015357806323b872dd14610171575b600080fd5b61010d61034b565b60405161011a9190610ff2565b60405180910390f35b61013d600480360381019061013891906110ad565b6103dd565b60405161014a9190611108565b60405180910390f35b61015b610400565b6040516101689190611132565b60405180910390f35b61018b6004803603810190610186919061114d565b61040a565b6040516101989190611108565b60405180910390f35b6101a9610439565b6040516101b691906111bc565b60405180910390f35b6101d960048036038101906101d491906110ad565b610442565b6040516101e69190611108565b60405180910390f35b6101f7610479565b6040516102049190611132565b60405180910390f35b610227600480360381019061022291906111d7565b610483565b6040516102349190611132565b60405180910390f35b6102456104cb565b005b61024f610553565b60405161025c9190611213565b60405180910390f35b61026d61057d565b60405161027a9190610ff2565b60405180910390f35b61029d600480360381019061029891906110ad565b61060f565b6040516102aa9190611108565b60405180910390f35b6102cd60048036038101906102c891906110ad565b610686565b6040516102da9190611108565b60405180910390f35b6102fd60048036038101906102f891906110ad565b6106a9565b005b6103196004803603810190610314919061122e565b6106d0565b6040516103269190611132565b60405180910390f35b610349600480360381019061034491906111d7565b610757565b005b60606003805461035a9061129d565b80601f01602080910402602001604051908101604052809291908181526020018280546103869061129d565b80156103d35780601f106103a8576101008083540402835291602001916103d3565b820191906000526020600020905b8154815290600101906020018083116103b657829003601f168201915b5050505050905090565b6000806103e861084e565b90506103f5818585610856565b600191505092915050565b6000600a54905090565b60008061041561084e565b9050610422858285610a1f565b61042d858585610aab565b60019150509392505050565b60006012905090565b60008061044d61084e565b905061046e81858561045f85896106d0565b61046991906112fd565b610856565b600191505092915050565b6000600a54905090565b60008060008373ffffffffffffffffffffffffffffffffffffffff1673ffffffffffffffffffffffffffffffffffffffff168152602001908152602001600020549050919050565b6104d361084e565b73ffffffffffffffffffffffffffffffffffffffff166104f1610553565b73ffffffffffffffffffffffffffffffffffffffff1614610547576040517f08c379a000000000000000000000000000000000000000000000000000000000815260040161053e9061139f565b60405180910390fd5b6105516000610d2a565b565b6000600560009054906101000a900473ffffffffffffffffffffffffffffffffffffffff16905090565b60606004805461058c9061129d565b80601f01602080910402602001604051908101604052809291908181526020018280546105b89061129d565b80156106055780601f106105da57610100808354040283529160200191610605565b820191906000526020600020905b8154815290600101906020018083116105e857829003601f168201915b5050505050905090565b60008061061a61084e565b9050600061062882866106d0565b90508381101561066d576040517f08c379a000000000000000000000000000000000000000000000000000000000815260040161066490611431565b60405180910390fd5b61067a8286868403610856565b60019250505092915050565b60008061069161084e565b905061069e818585610aab565b600191505092915050565b80600a60008282546106bb91906112fd565b925050819055506106cc8282610df0565b5050565b6000600160008473ffffffffffffffffffffffffffffffffffffffff1673ffffffffffffffffffffffffffffffffffffffff16815260200190815260200160002060008373ffffffffffffffffffffffffffffffffffffffff1673ffffffffffffffffffffffffffffffffffffffff16815260200190815260200160002054905092915050565b61075f61084e565b73ffffffffffffffffffffffffffffffffffffffff1661077d610553565b73ffffffffffffffffffffffffffffffffffffffff16146107d3576040517f08c379a00000000000000000000000000000000000000000000000000000000081526004016107ca9061139f565b60405180910390fd5b600073ffffffffffffffffffffffffffffffffffffffff168173ffffffffffffffffffffffffffffffffffffffff1603610842576040517f08c379a0000000000000000000000000000000000000000000000000000000008152600401610839906114c3565b60405180910390fd5b61084b81610d2a565b50565b600033905090565b600073ffffffffffffffffffffffffffffffffffffffff168373ffffffffffffffffffffffffffffffffffffffff16036108c5576040517f08c379a00000000000000000000000000000000000000000000000000000000081526004016108bc9061152f565b60405180910390fd5b600073ffffffffffffffffffffffffffffffffffffffff168273ffffffffffffffffffffffffffffffffffffffff1603610934576040517f08c379a000000000000000000000000000000000000000000000000000000000815260040161092b9061159b565b60405180910390fd5b80600160008573ffffffffffffffffffffffffffffffffffffffff1673ffffffffffffffffffffffffffffffffffffffff16815260200190815260200160002060008473ffffffffffffffffffffffffffffffffffffffff1673ffffffffffffffffffffffffffffffffffffffff168152602001908152602001600020819055508173ffffffffffffffffffffffffffffffffffffffff168373ffffffffffffffffffffffffffffffffffffffff167f8c5be1e5ebec7d5bd14f71427d1e84f3dd0314c0f7b2291e5b200ac8c7c3b92583604051610a129190611132565b60405180910390a3505050565b6000610a2b84846106d0565b90507fffffffffffffffffffffffffffffffffffffffffffffffffffffffffffffffff8114610aa55781811015610a97576040517f08c379a0000000000000000000000000000000000000000000000000000000008152600401610a8e90611607565b60405180910390fd5b610aa48484848403610856565b5b50505050565b600073ffffffffffffffffffffffffffffffffffffffff168373ffffffffffffffffffffffffffffffffffffffff1603610b1a576040517f08c379a0000000000000000000000000000000000000000000000000000000008152600401610b1190611699565b60405180910390fd5b600073ffffffffffffffffffffffffffffffffffffffff168273ffffffffffffffffffffffffffffffffffffffff1603610b89576040517f08c379a0000000000000000000000000000000000000000000000000000000008152600401610b8090611705565b60405180910390fd5b610b94838383610f4f565b60008060008573ffffffffffffffffffffffffffffffffffffffff1673ffffffffffffffffffffffffffffffffffffffff16815260200190815260200160002054905081811015610c1a576040517f08c379a0000000000000000000000000000000000000000000000000000000008152600401610c1190611797565b60405180910390fd5b8181036000808673ffffffffffffffffffffffffffffffffffffffff1673ffffffffffffffffffffffffffffffffffffffff16815260200190815260200160002081905550816000808573ffffffffffffffffffffffffffffffffffffffff1673ffffffffffffffffffffffffffffffffffffffff1681526020019081526020016000206000828254610cad91906112fd565b925050819055508273ffffffffffffffffffffffffffffffffffffffff168473ffffffffffffffffffffffffffffffffffffffff167fddf252ad1be2c89b69c2b068fc378daa952ba7f163c4a11628f55a4df523b3ef84604051610d119190611132565b60405180910390a3610d24848484610f54565b50505050565b6000600560009054906101000a900473ffffffffffffffffffffffffffffffffffffffff16905081600560006101000a81548173ffffffffffffffffffffffffffffffffffffffff021916908373ffffffffffffffffffffffffffffffffffffffff1602179055508173ffffffffffffffffffffffffffffffffffffffff168173ffffffffffffffffffffffffffffffffffffffff167f8be0079c531659141344cd1fd0a4f28419497f9722a3daafe3b4186f6b6457e060405160405180910390a35050565b600073ffffffffffffffffffffffffffffffffffffffff168273ffffffffffffffffffffffffffffffffffffffff1603610e5f576040517f08c379a0000000000000000000000000000000000000000000000000000000008152600401610e5690611803565b60405180910390fd5b610e6b60008383610f4f565b8060026000828254610e7d91906112fd565b92505081905550806000808473ffffffffffffffffffffffffffffffffffffffff1673ffffffffffffffffffffffffffffffffffffffff1681526020019081526020016000206000828254610ed291906112fd565b925050819055508173ffffffffffffffffffffffffffffffffffffffff16600073ffffffffffffffffffffffffffffffffffffffff167fddf252ad1be2c89b69c2b068fc378daa952ba7f163c4a11628f55a4df523b3ef83604051610f379190611132565b60405180910390a3610f4b60008383610f54565b5050565b505050565b505050565b600081519050919050565b600082825260208201905092915050565b60005b83811015610f93578082015181840152602081019050610f78565b83811115610fa2576000848401525b50505050565b6000601f19601f8301169050919050565b6000610fc482610f59565b610fce8185610f64565b9350610fde818560208601610f75565b610fe781610fa8565b840191505092915050565b6000602082019050818103600083015261100c8184610fb9565b905092915050565b600080fd5b600073ffffffffffffffffffffffffffffffffffffffff82169050919050565b600061104482611019565b9050919050565b61105481611039565b811461105f57600080fd5b50565b6000813590506110718161104b565b92915050565b6000819050919050565b61108a81611077565b811461109557600080fd5b50565b6000813590506110a781611081565b92915050565b600080604083850312156110c4576110c3611014565b5b60006110d285828601611062565b92505060206110e385828601611098565b9150509250929050565b60008115159050919050565b611102816110ed565b82525050565b600060208201905061111d60008301846110f9565b92915050565b61112c81611077565b82525050565b60006020820190506111476000830184611123565b92915050565b60008060006060848603121561116657611165611014565b5b600061117486828701611062565b935050602061118586828701611062565b925050604061119686828701611098565b9150509250925092565b600060ff82169050919050565b6111b6816111a0565b82525050565b60006020820190506111d160008301846111ad565b92915050565b6000602082840312156111ed576111ec611014565b5b60006111fb84828501611062565b91505092915050565b61120d81611039565b82525050565b60006020820190506112286000830184611204565b92915050565b6000806040838503121561124557611244611014565b5b600061125385828601611062565b925050602061126485828601611062565b9150509250929050565b7f4e487b7100000000000000000000000000000000000000000000000000000000600052602260045260246000fd5b600060028204905060018216806112b557607f821691505b6020821081036112c8576112c761126e565b5b50919050565b7f4e487b7100000000000000000000000000000000000000000000000000000000600052601160045260246000fd5b600061130882611077565b915061131383611077565b9250827fffffffffffffffffffffffffffffffffffffffffffffffffffffffffffffffff03821115611348576113476112ce565b5b828201905092915050565b7f4f776e61626c653a2063616c6c6572206973206e6f7420746865206f776e6572600082015250565b6000611389602083610f64565b915061139482611353565b602082019050919050565b600060208201905081810360008301526113b88161137c565b9050919050565b7f45524332303a20646563726561736520616c6c6f77616e63652062656c6f772060008201527f7a65726f00000000000000000000000000000000000000000000000000000000602082015250565b600061141b602483610f64565b9150611426826113bf565b604082019050919050565b6000602082019050818103600083015261144a8161140e565b9050919050565b7f4f776e61626c653a206e6577206f776e657220697320746865207a65726f206160008201527f6464726573730000000000000000000000000000000000000000000000000000602082015250565b60006114ad602683610f64565b91506114b882611451565b604082019050919050565b600060208201905081810360008301526114dc816114a0565b9050919050565b7f45524332303a20617070726f76652066726f6d207a65726f2061646472657373600082015250565b6000611519602083610f64565b9150611524826114e3565b602082019050919050565b600060208201905081810360008301526115488161150c565b9050919050565b7f45524332303a20617070726f766520746f207a65726f20616464726573730000600082015250565b6000611585601e83610f64565b91506115908261154f565b602082019050919050565b600060208201905081810360008301526115b481611578565b9050919050565b7f45524332303a20696e73756666696369656e7420616c6c6f77616e6365000000600082015250565b60006115f1601d83610f64565b91506115fc826115bb565b602082019050919050565b60006020820190508181036000830152611620816115e4565b9050919050565b7f45524332303a207472616e736665722066726f6d207a65726f2061646472657360008201527f7300000000000000000000000000000000000000000000000000000000000000602082015250565b6000611683602183610f64565b915061168e82611627565b604082019050919050565b600060208201905081810360008301526116b281611676565b9050919050565b7f45524332303a207472616e7366657220746f207a65726f206164647265737300600082015250565b60006116ef601f83610f64565b91506116fa826116b9565b602082019050919050565b6000602082019050818103600083015261171e816116e2565b9050919050565b7f45524332303a207472616e7366657220616d6f756e742065786365656420626160008201527f6c616e6365000000000000000000000000000000000000000000000000000000602082015250565b6000611781602583610f64565b915061178c82611725565b604082019050919050565b600060208201905081810360008301526117b081611774565b9050919050565b7f45524332303a206d696e7420746f20746865207a65726f206164647265737300600082015250565b60006117ed601f83610f64565b91506117f8826117b7565b602082019050919050565b6000602082019050818103600083015261181c816117e0565b905091905056fea2646970667358221220f47619f5d68231063a5cbd2c24a3b733d77a6b8cb94ffeda8156f9a5c070b7fd64736f6c634300080d0033",
  "immutableReferences": {},
  "source": "// SPDX-License-Identifier: Unlicenced\n\npragma solidity ^0.8.0;\n\nimport \"./erc20/ERC20.sol\";\nimport \"./access/Ownable.sol\";\n\n// ERC20\ncontract MyToken is ERC20, Ownable{\n    // \n    mapping(address => uint256) private _balances;\n    // \n    mapping(address => mapping(address => uint256)) private _allowance;\n\n    // \n    string private _name;\n    // \n    string private _symbol;\n\n    // \n    // constructor(string memory name_, string memory symbol_) {\n    //     _name = name_;\n    //     _symbol = symbol_;\n    // }\n\n    // \n    uint256 private _totalSupply;\n\n    // \n    constructor() ERC20(\n        \"hehe\", \"sorry\"\n    ) {}\n\n    // \n    // function mintToken(address recipient, uint256 initialSupply ) public onlyOwner {\n    //     _totalSupply = initialSupply;\n\n    //     _mint(recipient, initialSupply);\n    // }\n\n    function mingToken(address recipient, uint256 initialSupply) public {\n        _totalSupply += initialSupply;\n        _mint(recipient, initialSupply);\n    }\n\n    // \n    function totalSupply() public view override returns (uint256) {\n        return _totalSupply;\n    }\n\n    // \n    function get() public view returns (uint256) {\n        return _totalSupply;\n    }\n\n}\n",
  "sourcePath": "/Users/takagihrs/Desktop/MyProject/dapp/truffle-boxed/contracts/MyContract.sol",
  "compiler": {
    "name": "solc",
    "version": "0.8.13+commit.abaa5c0e.Emscripten.clang"
  },
  "schemaVersion": "3.4.7",
  "updatedAt": "2022-04-28T06:20:22.190Z",
  "networkType": "ethereum",
  "devdoc": {
    "kind": "dev",
    "methods": {},
    "version": 1
  },
  "userdoc": {
    "kind": "user",
    "methods": {},
    "version": 1
  }
}