{
  "contractName": "MyToken",
  "abi": [
    {
      "inputs": [
        {
          "internalType": "string",
          "name": "_name",
          "type": "string"
        },
        {
          "internalType": "string",
          "name": "_symbol",
          "type": "string"
        }
      ],
      "stateMutability": "nonpayable",
      "type": "constructor"
    },
    {
      "anonymous": false,
      "inputs": [
        {
          "indexed": true,
          "internalType": "address",
          "name": "owner",
          "type": "address"
        },
        {
          "indexed": true,
          "internalType": "address",
          "name": "spender",
          "type": "address"
        },
        {
          "indexed": false,
          "internalType": "uint256",
          "name": "value",
          "type": "uint256"
        }
      ],
      "name": "Approval",
      "type": "event"
    },
    {
      "anonymous": false,
      "inputs": [
        {
          "indexed": true,
          "internalType": "address",
          "name": "previousOwner",
          "type": "address"
        },
        {
          "indexed": true,
          "internalType": "address",
          "name": "newOwner",
          "type": "address"
        }
      ],
      "name": "OwnershipTransferred",
      "type": "event"
    },
    {
      "anonymous": false,
      "inputs": [
        {
          "indexed": false,
          "internalType": "address",
          "name": "account",
          "type": "address"
        }
      ],
      "name": "Paused",
      "type": "event"
    },
    {
      "anonymous": false,
      "inputs": [
        {
          "indexed": true,
          "internalType": "address",
          "name": "from",
          "type": "address"
        },
        {
          "indexed": true,
          "internalType": "address",
          "name": "to",
          "type": "address"
        },
        {
          "indexed": false,
          "internalType": "uint256",
          "name": "value",
          "type": "uint256"
        }
      ],
      "name": "Transfer",
      "type": "event"
    },
    {
      "anonymous": false,
      "inputs": [
        {
          "indexed": false,
          "internalType": "address",
          "name": "account",
          "type": "address"
        }
      ],
      "name": "Unpaused",
      "type": "event"
    },
    {
      "inputs": [
        {
          "internalType": "address",
          "name": "owner",
          "type": "address"
        },
        {
          "internalType": "address",
          "name": "spender",
          "type": "address"
        }
      ],
      "name": "allowance",
      "outputs": [
        {
          "internalType": "uint256",
          "name": "",
          "type": "uint256"
        }
      ],
      "stateMutability": "view",
      "type": "function"
    },
    {
      "inputs": [
        {
          "internalType": "address",
          "name": "spender",
          "type": "address"
        },
        {
          "internalType": "uint256",
          "name": "amount",
          "type": "uint256"
        }
      ],
      "name": "approve",
      "outputs": [
        {
          "internalType": "bool",
          "name": "",
          "type": "bool"
        }
      ],
      "stateMutability": "nonpayable",
      "type": "function"
    },
    {
      "inputs": [
        {
          "internalType": "address",
          "name": "account",
          "type": "address"
        }
      ],
      "name": "balanceOf",
      "outputs": [
        {
          "internalType": "uint256",
          "name": "",
          "type": "uint256"
        }
      ],
      "stateMutability": "view",
      "type": "function"
    },
    {
      "inputs": [
        {
          "internalType": "address",
          "name": "account",
          "type": "address"
        },
        {
          "internalType": "uint256",
          "name": "amount",
          "type": "uint256"
        }
      ],
      "name": "burnFrom",
      "outputs": [],
      "stateMutability": "nonpayable",
      "type": "function"
    },
    {
      "inputs": [],
      "name": "decimals",
      "outputs": [
        {
          "internalType": "uint8",
          "name": "",
          "type": "uint8"
        }
      ],
      "stateMutability": "view",
      "type": "function"
    },
    {
      "inputs": [
        {
          "internalType": "address",
          "name": "spender",
          "type": "address"
        },
        {
          "internalType": "uint256",
          "name": "substractValue",
          "type": "uint256"
        }
      ],
      "name": "decreaseAllowance",
      "outputs": [
        {
          "internalType": "bool",
          "name": "",
          "type": "bool"
        }
      ],
      "stateMutability": "nonpayable",
      "type": "function"
    },
    {
      "inputs": [
        {
          "internalType": "address",
          "name": "spender",
          "type": "address"
        },
        {
          "internalType": "uint256",
          "name": "addedValue",
          "type": "uint256"
        }
      ],
      "name": "increaseAllowance",
      "outputs": [
        {
          "internalType": "bool",
          "name": "",
          "type": "bool"
        }
      ],
      "stateMutability": "nonpayable",
      "type": "function"
    },
    {
      "inputs": [],
      "name": "name",
      "outputs": [
        {
          "internalType": "string",
          "name": "",
          "type": "string"
        }
      ],
      "stateMutability": "view",
      "type": "function"
    },
    {
      "inputs": [],
      "name": "owner",
      "outputs": [
        {
          "internalType": "address",
          "name": "",
          "type": "address"
        }
      ],
      "stateMutability": "view",
      "type": "function"
    },
    {
      "inputs": [],
      "name": "paused",
      "outputs": [
        {
          "internalType": "bool",
          "name": "",
          "type": "bool"
        }
      ],
      "stateMutability": "view",
      "type": "function"
    },
    {
      "inputs": [],
      "name": "renounceOwnership",
      "outputs": [],
      "stateMutability": "nonpayable",
      "type": "function"
    },
    {
      "inputs": [],
      "name": "symbol",
      "outputs": [
        {
          "internalType": "string",
          "name": "",
          "type": "string"
        }
      ],
      "stateMutability": "view",
      "type": "function"
    },
    {
      "inputs": [],
      "name": "totalSupply",
      "outputs": [
        {
          "internalType": "uint256",
          "name": "",
          "type": "uint256"
        }
      ],
      "stateMutability": "view",
      "type": "function"
    },
    {
      "inputs": [
        {
          "internalType": "address",
          "name": "to",
          "type": "address"
        },
        {
          "internalType": "uint256",
          "name": "amount",
          "type": "uint256"
        }
      ],
      "name": "transfer",
      "outputs": [
        {
          "internalType": "bool",
          "name": "",
          "type": "bool"
        }
      ],
      "stateMutability": "nonpayable",
      "type": "function"
    },
    {
      "inputs": [
        {
          "internalType": "address",
          "name": "from",
          "type": "address"
        },
        {
          "internalType": "address",
          "name": "to",
          "type": "address"
        },
        {
          "internalType": "uint256",
          "name": "amount",
          "type": "uint256"
        }
      ],
      "name": "transferFrom",
      "outputs": [
        {
          "internalType": "bool",
          "name": "",
          "type": "bool"
        }
      ],
      "stateMutability": "nonpayable",
      "type": "function"
    },
    {
      "inputs": [
        {
          "internalType": "address",
          "name": "newOwner",
          "type": "address"
        }
      ],
      "name": "transferOwnership",
      "outputs": [],
      "stateMutability": "nonpayable",
      "type": "function"
    },
    {
      "inputs": [],
      "name": "pause",
      "outputs": [],
      "stateMutability": "nonpayable",
      "type": "function"
    },
    {
      "inputs": [],
      "name": "unpause_",
      "outputs": [],
      "stateMutability": "nonpayable",
      "type": "function"
    },
    {
      "inputs": [
        {
          "internalType": "address",
          "name": "to",
          "type": "address"
        },
        {
          "internalType": "uint256",
          "name": "amount",
          "type": "uint256"
        }
      ],
      "name": "mint",
      "outputs": [],
      "stateMutability": "nonpayable",
      "type": "function"
    },
    {
      "inputs": [
        {
          "internalType": "uint256",
          "name": "amount",
          "type": "uint256"
        }
      ],
      "name": "burn",
      "outputs": [],
      "stateMutability": "nonpayable",
      "type": "function"
    },
    {
      "inputs": [
        {
          "internalType": "address",
          "name": "to",
          "type": "address"
        },
        {
          "internalType": "uint256",
          "name": "amount",
          "type": "uint256"
        }
      ],
      "name": "burn",
      "outputs": [],
      "stateMutability": "nonpayable",
      "type": "function"
    }
  ],
  "bytecode": "0x60806040523480156200001157600080fd5b5060405162002486380380620024868339818101604052810190620000379190620003fd565b8181816003908051906020019062000051929190620001b0565b5080600490805190602001906200006a929190620001b0565b5050506200008d62000081620000e260201b60201c565b620000ea60201b60201c565b6000600560146101000a81548160ff0219169083151502179055508160069080519060200190620000c0929190620001b0565b508060079080519060200190620000d9929190620001b0565b505050620004e6565b600033905090565b6000600560009054906101000a900473ffffffffffffffffffffffffffffffffffffffff16905081600560006101000a81548173ffffffffffffffffffffffffffffffffffffffff021916908373ffffffffffffffffffffffffffffffffffffffff1602179055508173ffffffffffffffffffffffffffffffffffffffff168173ffffffffffffffffffffffffffffffffffffffff167f8be0079c531659141344cd1fd0a4f28419497f9722a3daafe3b4186f6b6457e060405160405180910390a35050565b828054620001be90620004b1565b90600052602060002090601f016020900481019282620001e257600085556200022e565b82601f10620001fd57805160ff19168380011785556200022e565b828001600101855582156200022e579182015b828111156200022d57825182559160200191906001019062000210565b5b5090506200023d919062000241565b5090565b5b808211156200025c57600081600090555060010162000242565b5090565b6000604051905090565b600080fd5b600080fd5b600080fd5b600080fd5b6000601f19601f8301169050919050565b7f4e487b7100000000000000000000000000000000000000000000000000000000600052604160045260246000fd5b620002c9826200027e565b810181811067ffffffffffffffff82111715620002eb57620002ea6200028f565b5b80604052505050565b60006200030062000260565b90506200030e8282620002be565b919050565b600067ffffffffffffffff8211156200033157620003306200028f565b5b6200033c826200027e565b9050602081019050919050565b60005b83811015620003695780820151818401526020810190506200034c565b8381111562000379576000848401525b50505050565b600062000396620003908462000313565b620002f4565b905082815260208101848484011115620003b557620003b462000279565b5b620003c284828562000349565b509392505050565b600082601f830112620003e257620003e162000274565b5b8151620003f48482602086016200037f565b91505092915050565b600080604083850312156200041757620004166200026a565b5b600083015167ffffffffffffffff8111156200043857620004376200026f565b5b6200044685828601620003ca565b925050602083015167ffffffffffffffff8111156200046a57620004696200026f565b5b6200047885828601620003ca565b9150509250929050565b7f4e487b7100000000000000000000000000000000000000000000000000000000600052602260045260246000fd5b60006002820490506001821680620004ca57607f821691505b602082108103620004e057620004df62000482565b5b50919050565b611f9080620004f66000396000f3fe608060405234801561001057600080fd5b50600436106101375760003560e01c8063715018a6116100b85780639dc29fac1161007c5780639dc29fac14610318578063a457c2d714610334578063a9059cbb14610364578063bcaf9ef114610394578063dd62ed3e1461039e578063f2fde38b146103ce57610137565b8063715018a6146102ac57806379cc6790146102b65780638456cb59146102d25780638da5cb5b146102dc57806395d89b41146102fa57610137565b806339509351116100ff57806339509351146101f657806340c10f191461022657806342966c68146102425780635c975abb1461025e57806370a082311461027c57610137565b806306fdde031461013c578063095ea7b31461015a57806318160ddd1461018a57806323b872dd146101a8578063313ce567146101d8575b600080fd5b6101446103ea565b60405161015191906114cc565b60405180910390f35b610174600480360381019061016f9190611587565b61047c565b60405161018191906115e2565b60405180910390f35b61019261049f565b60405161019f919061160c565b60405180910390f35b6101c260048036038101906101bd9190611627565b6104a9565b6040516101cf91906115e2565b60405180910390f35b6101e06104d8565b6040516101ed9190611696565b60405180910390f35b610210600480360381019061020b9190611587565b6104e1565b60405161021d91906115e2565b60405180910390f35b610240600480360381019061023b9190611587565b610518565b005b61025c600480360381019061025791906116b1565b610526565b005b61026661053a565b60405161027391906115e2565b60405180910390f35b610296600480360381019061029191906116de565b610551565b6040516102a3919061160c565b60405180910390f35b6102b4610599565b005b6102d060048036038101906102cb9190611587565b610621565b005b6102da610641565b005b6102e461064b565b6040516102f1919061171a565b60405180910390f35b610302610675565b60405161030f91906114cc565b60405180910390f35b610332600480360381019061032d9190611587565b610707565b005b61034e60048036038101906103499190611587565b610715565b60405161035b91906115e2565b60405180910390f35b61037e60048036038101906103799190611587565b61078c565b60405161038b91906115e2565b60405180910390f35b61039c6107af565b005b6103b860048036038101906103b39190611735565b6107b9565b6040516103c5919061160c565b60405180910390f35b6103e860048036038101906103e391906116de565b610840565b005b6060600380546103f9906117a4565b80601f0160208091040260200160405190810160405280929190818152602001828054610425906117a4565b80156104725780601f1061044757610100808354040283529160200191610472565b820191906000526020600020905b81548152906001019060200180831161045557829003601f168201915b5050505050905090565b600080610487610937565b905061049481858561093f565b600191505092915050565b6000600254905090565b6000806104b4610937565b90506104c1858285610b08565b6104cc858585610b94565b60019150509392505050565b60006012905090565b6000806104ec610937565b905061050d8185856104fe85896107b9565b6105089190611804565b61093f565b600191505092915050565b6105228282610e13565b5050565b610537610531610937565b82610e21565b50565b6000600560149054906101000a900460ff16905090565b60008060008373ffffffffffffffffffffffffffffffffffffffff1673ffffffffffffffffffffffffffffffffffffffff168152602001908152602001600020549050919050565b6105a1610937565b73ffffffffffffffffffffffffffffffffffffffff166105bf61064b565b73ffffffffffffffffffffffffffffffffffffffff1614610615576040517f08c379a000000000000000000000000000000000000000000000000000000000815260040161060c906118a6565b60405180910390fd5b61061f6000610e2f565b565b6106338261062d610937565b83610b08565b61063d8282610e21565b5050565b610649610ef5565b565b6000600560009054906101000a900473ffffffffffffffffffffffffffffffffffffffff16905090565b606060048054610684906117a4565b80601f01602080910402602001604051908101604052809291908181526020018280546106b0906117a4565b80156106fd5780601f106106d2576101008083540402835291602001916106fd565b820191906000526020600020905b8154815290600101906020018083116106e057829003601f168201915b5050505050905090565b6107118282610e21565b5050565b600080610720610937565b9050600061072e82866107b9565b905083811015610773576040517f08c379a000000000000000000000000000000000000000000000000000000000815260040161076a90611938565b60405180910390fd5b610780828686840361093f565b60019250505092915050565b600080610797610937565b90506107a4818585610b94565b600191505092915050565b6107b7610f98565b565b6000600160008473ffffffffffffffffffffffffffffffffffffffff1673ffffffffffffffffffffffffffffffffffffffff16815260200190815260200160002060008373ffffffffffffffffffffffffffffffffffffffff1673ffffffffffffffffffffffffffffffffffffffff16815260200190815260200160002054905092915050565b610848610937565b73ffffffffffffffffffffffffffffffffffffffff1661086661064b565b73ffffffffffffffffffffffffffffffffffffffff16146108bc576040517f08c379a00000000000000000000000000000000000000000000000000000000081526004016108b3906118a6565b60405180910390fd5b600073ffffffffffffffffffffffffffffffffffffffff168173ffffffffffffffffffffffffffffffffffffffff160361092b576040517f08c379a0000000000000000000000000000000000000000000000000000000008152600401610922906119ca565b60405180910390fd5b61093481610e2f565b50565b600033905090565b600073ffffffffffffffffffffffffffffffffffffffff168373ffffffffffffffffffffffffffffffffffffffff16036109ae576040517f08c379a00000000000000000000000000000000000000000000000000000000081526004016109a590611a36565b60405180910390fd5b600073ffffffffffffffffffffffffffffffffffffffff168273ffffffffffffffffffffffffffffffffffffffff1603610a1d576040517f08c379a0000000000000000000000000000000000000000000000000000000008152600401610a1490611aa2565b60405180910390fd5b80600160008573ffffffffffffffffffffffffffffffffffffffff1673ffffffffffffffffffffffffffffffffffffffff16815260200190815260200160002060008473ffffffffffffffffffffffffffffffffffffffff1673ffffffffffffffffffffffffffffffffffffffff168152602001908152602001600020819055508173ffffffffffffffffffffffffffffffffffffffff168373ffffffffffffffffffffffffffffffffffffffff167f8c5be1e5ebec7d5bd14f71427d1e84f3dd0314c0f7b2291e5b200ac8c7c3b92583604051610afb919061160c565b60405180910390a3505050565b6000610b1484846107b9565b90507fffffffffffffffffffffffffffffffffffffffffffffffffffffffffffffffff8114610b8e5781811015610b80576040517f08c379a0000000000000000000000000000000000000000000000000000000008152600401610b7790611b0e565b60405180910390fd5b610b8d848484840361093f565b5b50505050565b600073ffffffffffffffffffffffffffffffffffffffff168373ffffffffffffffffffffffffffffffffffffffff1603610c03576040517f08c379a0000000000000000000000000000000000000000000000000000000008152600401610bfa90611ba0565b60405180910390fd5b600073ffffffffffffffffffffffffffffffffffffffff168273ffffffffffffffffffffffffffffffffffffffff1603610c72576040517f08c379a0000000000000000000000000000000000000000000000000000000008152600401610c6990611c0c565b60405180910390fd5b610c7d838383610fa2565b60008060008573ffffffffffffffffffffffffffffffffffffffff1673ffffffffffffffffffffffffffffffffffffffff16815260200190815260200160002054905081811015610d03576040517f08c379a0000000000000000000000000000000000000000000000000000000008152600401610cfa90611c9e565b60405180910390fd5b8181036000808673ffffffffffffffffffffffffffffffffffffffff1673ffffffffffffffffffffffffffffffffffffffff16815260200190815260200160002081905550816000808573ffffffffffffffffffffffffffffffffffffffff1673ffffffffffffffffffffffffffffffffffffffff1681526020019081526020016000206000828254610d969190611804565b925050819055508273ffffffffffffffffffffffffffffffffffffffff168473ffffffffffffffffffffffffffffffffffffffff167fddf252ad1be2c89b69c2b068fc378daa952ba7f163c4a11628f55a4df523b3ef84604051610dfa919061160c565b60405180910390a3610e0d848484610ffa565b50505050565b610e1d8282611052565b5050565b610e2b82826111b1565b5050565b6000600560009054906101000a900473ffffffffffffffffffffffffffffffffffffffff16905081600560006101000a81548173ffffffffffffffffffffffffffffffffffffffff021916908373ffffffffffffffffffffffffffffffffffffffff1602179055508173ffffffffffffffffffffffffffffffffffffffff168173ffffffffffffffffffffffffffffffffffffffff167f8be0079c531659141344cd1fd0a4f28419497f9722a3daafe3b4186f6b6457e060405160405180910390a35050565b610efd61053a565b15610f3d576040517f08c379a0000000000000000000000000000000000000000000000000000000008152600401610f3490611d0a565b60405180910390fd5b6001600560146101000a81548160ff0219169083151502179055507f62e78cea01bee320cd4e420270b5ea74000d11b0c9f74754ebdbfc544b05a258610f81610937565b604051610f8e919061171a565b60405180910390a1565b610fa0611387565b565b610faa61053a565b15610fea576040517f08c379a0000000000000000000000000000000000000000000000000000000008152600401610fe190611d0a565b60405180910390fd5b610ff5838383611429565b505050565b61100261053a565b15611042576040517f08c379a000000000000000000000000000000000000000000000000000000000815260040161103990611d0a565b60405180910390fd5b61104d83838361142e565b505050565b600073ffffffffffffffffffffffffffffffffffffffff168273ffffffffffffffffffffffffffffffffffffffff16036110c1576040517f08c379a00000000000000000000000000000000000000000000000000000000081526004016110b890611d76565b60405180910390fd5b6110cd60008383610fa2565b80600260008282546110df9190611804565b92505081905550806000808473ffffffffffffffffffffffffffffffffffffffff1673ffffffffffffffffffffffffffffffffffffffff16815260200190815260200160002060008282546111349190611804565b925050819055508173ffffffffffffffffffffffffffffffffffffffff16600073ffffffffffffffffffffffffffffffffffffffff167fddf252ad1be2c89b69c2b068fc378daa952ba7f163c4a11628f55a4df523b3ef83604051611199919061160c565b60405180910390a36111ad60008383610ffa565b5050565b600073ffffffffffffffffffffffffffffffffffffffff168273ffffffffffffffffffffffffffffffffffffffff1603611220576040517f08c379a000000000000000000000000000000000000000000000000000000000815260040161121790611e08565b60405180910390fd5b61122c82600083610fa2565b60008060008473ffffffffffffffffffffffffffffffffffffffff1673ffffffffffffffffffffffffffffffffffffffff168152602001908152602001600020549050818110156112b2576040517f08c379a00000000000000000000000000000000000000000000000000000000081526004016112a990611e9a565b60405180910390fd5b8181036000808573ffffffffffffffffffffffffffffffffffffffff1673ffffffffffffffffffffffffffffffffffffffff1681526020019081526020016000208190555081600260008282546113099190611eba565b92505081905550600073ffffffffffffffffffffffffffffffffffffffff168373ffffffffffffffffffffffffffffffffffffffff167fddf252ad1be2c89b69c2b068fc378daa952ba7f163c4a11628f55a4df523b3ef8460405161136e919061160c565b60405180910390a361138283600084610ffa565b505050565b61138f61053a565b6113ce576040517f08c379a00000000000000000000000000000000000000000000000000000000081526004016113c590611f3a565b60405180910390fd5b6000600560146101000a81548160ff0219169083151502179055507f5db9ee0a495bf2e6ff9c91a7834c1ba4fdd244a5e8aa4e537bd38aeae4b073aa611412610937565b60405161141f919061171a565b60405180910390a1565b505050565b505050565b600081519050919050565b600082825260208201905092915050565b60005b8381101561146d578082015181840152602081019050611452565b8381111561147c576000848401525b50505050565b6000601f19601f8301169050919050565b600061149e82611433565b6114a8818561143e565b93506114b881856020860161144f565b6114c181611482565b840191505092915050565b600060208201905081810360008301526114e68184611493565b905092915050565b600080fd5b600073ffffffffffffffffffffffffffffffffffffffff82169050919050565b600061151e826114f3565b9050919050565b61152e81611513565b811461153957600080fd5b50565b60008135905061154b81611525565b92915050565b6000819050919050565b61156481611551565b811461156f57600080fd5b50565b6000813590506115818161155b565b92915050565b6000806040838503121561159e5761159d6114ee565b5b60006115ac8582860161153c565b92505060206115bd85828601611572565b9150509250929050565b60008115159050919050565b6115dc816115c7565b82525050565b60006020820190506115f760008301846115d3565b92915050565b61160681611551565b82525050565b600060208201905061162160008301846115fd565b92915050565b6000806000606084860312156116405761163f6114ee565b5b600061164e8682870161153c565b935050602061165f8682870161153c565b925050604061167086828701611572565b9150509250925092565b600060ff82169050919050565b6116908161167a565b82525050565b60006020820190506116ab6000830184611687565b92915050565b6000602082840312156116c7576116c66114ee565b5b60006116d584828501611572565b91505092915050565b6000602082840312156116f4576116f36114ee565b5b60006117028482850161153c565b91505092915050565b61171481611513565b82525050565b600060208201905061172f600083018461170b565b92915050565b6000806040838503121561174c5761174b6114ee565b5b600061175a8582860161153c565b925050602061176b8582860161153c565b9150509250929050565b7f4e487b7100000000000000000000000000000000000000000000000000000000600052602260045260246000fd5b600060028204905060018216806117bc57607f821691505b6020821081036117cf576117ce611775565b5b50919050565b7f4e487b7100000000000000000000000000000000000000000000000000000000600052601160045260246000fd5b600061180f82611551565b915061181a83611551565b9250827fffffffffffffffffffffffffffffffffffffffffffffffffffffffffffffffff0382111561184f5761184e6117d5565b5b828201905092915050565b7f4f776e61626c653a2063616c6c6572206973206e6f7420746865206f776e6572600082015250565b600061189060208361143e565b915061189b8261185a565b602082019050919050565b600060208201905081810360008301526118bf81611883565b9050919050565b7f45524332303a20646563726561736520616c6c6f77616e63652062656c6f772060008201527f7a65726f00000000000000000000000000000000000000000000000000000000602082015250565b600061192260248361143e565b915061192d826118c6565b604082019050919050565b6000602082019050818103600083015261195181611915565b9050919050565b7f4f776e61626c653a206e6577206f776e657220697320746865207a65726f206160008201527f6464726573730000000000000000000000000000000000000000000000000000602082015250565b60006119b460268361143e565b91506119bf82611958565b604082019050919050565b600060208201905081810360008301526119e3816119a7565b9050919050565b7f45524332303a20617070726f76652066726f6d207a65726f2061646472657373600082015250565b6000611a2060208361143e565b9150611a2b826119ea565b602082019050919050565b60006020820190508181036000830152611a4f81611a13565b9050919050565b7f45524332303a20617070726f766520746f207a65726f20616464726573730000600082015250565b6000611a8c601e8361143e565b9150611a9782611a56565b602082019050919050565b60006020820190508181036000830152611abb81611a7f565b9050919050565b7f45524332303a20696e73756666696369656e7420616c6c6f77616e6365000000600082015250565b6000611af8601d8361143e565b9150611b0382611ac2565b602082019050919050565b60006020820190508181036000830152611b2781611aeb565b9050919050565b7f45524332303a207472616e736665722066726f6d207a65726f2061646472657360008201527f7300000000000000000000000000000000000000000000000000000000000000602082015250565b6000611b8a60218361143e565b9150611b9582611b2e565b604082019050919050565b60006020820190508181036000830152611bb981611b7d565b9050919050565b7f45524332303a207472616e7366657220746f207a65726f206164647265737300600082015250565b6000611bf6601f8361143e565b9150611c0182611bc0565b602082019050919050565b60006020820190508181036000830152611c2581611be9565b9050919050565b7f45524332303a207472616e7366657220616d6f756e742065786365656420626160008201527f6c616e6365000000000000000000000000000000000000000000000000000000602082015250565b6000611c8860258361143e565b9150611c9382611c2c565b604082019050919050565b60006020820190508181036000830152611cb781611c7b565b9050919050565b7f5061757361626c653a2070617573656400000000000000000000000000000000600082015250565b6000611cf460108361143e565b9150611cff82611cbe565b602082019050919050565b60006020820190508181036000830152611d2381611ce7565b9050919050565b7f45524332303a206d696e7420746f20746865207a65726f206164647265737300600082015250565b6000611d60601f8361143e565b9150611d6b82611d2a565b602082019050919050565b60006020820190508181036000830152611d8f81611d53565b9050919050565b7f45524332303a206275726e2066726f6d20746865207a65726f2061646472657360008201527f7300000000000000000000000000000000000000000000000000000000000000602082015250565b6000611df260218361143e565b9150611dfd82611d96565b604082019050919050565b60006020820190508181036000830152611e2181611de5565b9050919050565b7f45524332303a206275726e20616d6f756e74206578636565642062616c616e6360008201527f6500000000000000000000000000000000000000000000000000000000000000602082015250565b6000611e8460218361143e565b9150611e8f82611e28565b604082019050919050565b60006020820190508181036000830152611eb381611e77565b9050919050565b6000611ec582611551565b9150611ed083611551565b925082821015611ee357611ee26117d5565b5b828203905092915050565b7f5061757361626c653a206e6f7420706175736564000000000000000000000000600082015250565b6000611f2460148361143e565b9150611f2f82611eee565b602082019050919050565b60006020820190508181036000830152611f5381611f17565b905091905056fea26469706673582212205d6d79ff76ae7b37e71fab73f7f74322abf51056811e8fa756b8306ddd40d8e664736f6c634300080d0033",
  "immutableReferences": {},
  "source": "// SPDX-License-Identifier: Unlicenced\n\npragma solidity ^0.8.0;\n\nimport \"./ERC20.sol\";\nimport \"../access/Ownable.sol\";\nimport \"../security/Pausable.sol\";\nimport \"./extensions/ERC20Burnable.sol\";\n\n// ERC20\ncontract MyToken is ERC20, Ownable, Pausable, ERC20Burnalbe{\n    string tokenName;\n    string tokenSymbol;\n\n    constructor(string memory _name, string memory _symbol) ERC20(_name, _symbol) {\n        tokenName = _name;\n        tokenSymbol = _symbol;\n    }\n\n    /**\n     * \n     */\n    function pause() public {\n        _pause();\n    }\n\n    /**\n     * \n     */\n    function unpause_() public {\n        unpause();\n    }\n\n    /**\n     * \n     */\n    function unpause() internal override {\n        _unpause();\n    }\n\n    /**\n     * \n     * @param to mint\n     * @param amount mint\n     */\n    function mint(address to, uint256 amount) public {\n        _mint(to, amount);\n    }\n\n    /**\n     * burn\n     * @param to burn to \n     * @param amount burn amount\n     */\n    function burn (address to, uint256 amount) public {\n        _burn(to, amount);\n    }\n\n    /**\n     * Token\n     * @param from from address\n     * @param to to address \n     * @param amount amount\n     */\n    function _beforeTokenTransfer(address from, address to, uint256 amount) internal whenNotPaused override {\n        super._beforeTokenTransfer(from, to, amount);\n    }\n\n    /**\n     * @param from from address\n     * @param to to address \n     * @param amount amount\n     */\n    function _afterTokenTransfer(address from, address to, uint256 amount) internal whenNotPaused override {\n        super._afterTokenTransfer(from, to, amount);\n    }\n\n    function _mint(address to, uint256 amount) internal override(ERC20) {\n        super._mint(to, amount);\n    }\n\n    function _burn (address account, uint256 amount) internal override(ERC20) {\n        super._burn(account, amount);\n    }\n}\n",
  "sourcePath": "/Users/takagihrs/Desktop/MyProject/dapp/truffle-boxed/contracts/erc20/MyToken.sol",
  "compiler": {
    "name": "solc",
    "version": "0.8.13+commit.abaa5c0e.Emscripten.clang"
  },
  "schemaVersion": "3.4.7",
  "updatedAt": "2022-05-01T06:04:25.302Z",
  "devdoc": {
    "kind": "dev",
    "methods": {
      "burn(address,uint256)": {
        "params": {
          "amount": "burn amount",
          "to": "burn to "
        }
      },
      "mint(address,uint256)": {
        "params": {
          "amount": "mint",
          "to": "mint"
        }
      }
    },
    "version": 1
  },
  "userdoc": {
    "kind": "user",
    "methods": {
      "burn(address,uint256)": {
        "notice": "burn"
      },
      "mint(address,uint256)": {
        "notice": ""
      },
      "pause()": {
        "notice": ""
      },
      "unpause_()": {
        "notice": ""
      }
    },
    "version": 1
  }
}