{
  "contractName": "MyToken",
  "abi": [
    {
      "inputs": [],
      "stateMutability": "nonpayable",
      "type": "constructor"
    },
    {
      "anonymous": false,
      "inputs": [
        {
          "indexed": true,
          "internalType": "address",
          "name": "owner",
          "type": "address"
        },
        {
          "indexed": true,
          "internalType": "address",
          "name": "spender",
          "type": "address"
        },
        {
          "indexed": false,
          "internalType": "uint256",
          "name": "value",
          "type": "uint256"
        }
      ],
      "name": "Approval",
      "type": "event"
    },
    {
      "anonymous": false,
      "inputs": [
        {
          "indexed": true,
          "internalType": "address",
          "name": "from",
          "type": "address"
        },
        {
          "indexed": true,
          "internalType": "address",
          "name": "to",
          "type": "address"
        },
        {
          "indexed": false,
          "internalType": "uint256",
          "name": "value",
          "type": "uint256"
        }
      ],
      "name": "Transfer",
      "type": "event"
    },
    {
      "inputs": [
        {
          "internalType": "address",
          "name": "owner",
          "type": "address"
        },
        {
          "internalType": "address",
          "name": "spender",
          "type": "address"
        }
      ],
      "name": "allowance",
      "outputs": [
        {
          "internalType": "uint256",
          "name": "",
          "type": "uint256"
        }
      ],
      "stateMutability": "view",
      "type": "function",
      "constant": true
    },
    {
      "inputs": [
        {
          "internalType": "address",
          "name": "spender",
          "type": "address"
        },
        {
          "internalType": "uint256",
          "name": "amount",
          "type": "uint256"
        }
      ],
      "name": "approve",
      "outputs": [
        {
          "internalType": "bool",
          "name": "",
          "type": "bool"
        }
      ],
      "stateMutability": "nonpayable",
      "type": "function"
    },
    {
      "inputs": [
        {
          "internalType": "address",
          "name": "account",
          "type": "address"
        }
      ],
      "name": "balanceOf",
      "outputs": [
        {
          "internalType": "uint256",
          "name": "",
          "type": "uint256"
        }
      ],
      "stateMutability": "view",
      "type": "function",
      "constant": true
    },
    {
      "inputs": [],
      "name": "decimals",
      "outputs": [
        {
          "internalType": "uint8",
          "name": "",
          "type": "uint8"
        }
      ],
      "stateMutability": "view",
      "type": "function",
      "constant": true
    },
    {
      "inputs": [
        {
          "internalType": "address",
          "name": "spender",
          "type": "address"
        },
        {
          "internalType": "uint256",
          "name": "substractValue",
          "type": "uint256"
        }
      ],
      "name": "decreaseAllowance",
      "outputs": [
        {
          "internalType": "bool",
          "name": "",
          "type": "bool"
        }
      ],
      "stateMutability": "nonpayable",
      "type": "function"
    },
    {
      "inputs": [
        {
          "internalType": "address",
          "name": "spender",
          "type": "address"
        },
        {
          "internalType": "uint256",
          "name": "addedValue",
          "type": "uint256"
        }
      ],
      "name": "increaseAllowance",
      "outputs": [
        {
          "internalType": "bool",
          "name": "",
          "type": "bool"
        }
      ],
      "stateMutability": "nonpayable",
      "type": "function"
    },
    {
      "inputs": [],
      "name": "name",
      "outputs": [
        {
          "internalType": "string",
          "name": "",
          "type": "string"
        }
      ],
      "stateMutability": "view",
      "type": "function",
      "constant": true
    },
    {
      "inputs": [],
      "name": "symbol",
      "outputs": [
        {
          "internalType": "string",
          "name": "",
          "type": "string"
        }
      ],
      "stateMutability": "view",
      "type": "function",
      "constant": true
    },
    {
      "inputs": [
        {
          "internalType": "address",
          "name": "to",
          "type": "address"
        },
        {
          "internalType": "uint256",
          "name": "amount",
          "type": "uint256"
        }
      ],
      "name": "transfer",
      "outputs": [
        {
          "internalType": "bool",
          "name": "",
          "type": "bool"
        }
      ],
      "stateMutability": "nonpayable",
      "type": "function"
    },
    {
      "inputs": [
        {
          "internalType": "address",
          "name": "from",
          "type": "address"
        },
        {
          "internalType": "address",
          "name": "to",
          "type": "address"
        },
        {
          "internalType": "uint256",
          "name": "amount",
          "type": "uint256"
        }
      ],
      "name": "transferFrom",
      "outputs": [
        {
          "internalType": "bool",
          "name": "",
          "type": "bool"
        }
      ],
      "stateMutability": "nonpayable",
      "type": "function"
    },
    {
      "inputs": [
        {
          "internalType": "address",
          "name": "recipient",
          "type": "address"
        },
        {
          "internalType": "uint256",
          "name": "initialSupply",
          "type": "uint256"
        }
      ],
      "name": "mintToken",
      "outputs": [],
      "stateMutability": "nonpayable",
      "type": "function"
    },
    {
      "inputs": [],
      "name": "totalSupply",
      "outputs": [
        {
          "internalType": "uint256",
          "name": "",
          "type": "uint256"
        }
      ],
      "stateMutability": "view",
      "type": "function",
      "constant": true
    },
    {
      "inputs": [],
      "name": "get",
      "outputs": [
        {
          "internalType": "uint256",
          "name": "",
          "type": "uint256"
        }
      ],
      "stateMutability": "view",
      "type": "function",
      "constant": true
    }
  ],
  "bytecode": "0x60806040523480156200001157600080fd5b506040518060400160405280600481526020017f68656865000000000000000000000000000000000000000000000000000000008152506040518060400160405280600581526020017f736f727279000000000000000000000000000000000000000000000000000000815250816003908051906020019062000096929190620000b8565b508060049080519060200190620000af929190620000b8565b505050620001cc565b828054620000c69062000197565b90600052602060002090601f016020900481019282620000ea576000855562000136565b82601f106200010557805160ff191683800117855562000136565b8280016001018555821562000136579182015b828111156200013557825182559160200191906001019062000118565b5b50905062000145919062000149565b5090565b5b80821115620001645760008160009055506001016200014a565b5090565b7f4e487b7100000000000000000000000000000000000000000000000000000000600052602260045260246000fd5b60006002820490506001821680620001b057607f821691505b602082108103620001c657620001c562000168565b5b50919050565b61143b80620001dc6000396000f3fe608060405234801561001057600080fd5b50600436106100cf5760003560e01c80636d4ce63c1161008c57806395d89b411161006657806395d89b4114610228578063a457c2d714610246578063a9059cbb14610276578063dd62ed3e146102a6576100cf565b80636d4ce63c146101be57806370a08231146101dc57806379c650681461020c576100cf565b806306fdde03146100d4578063095ea7b3146100f257806318160ddd1461012257806323b872dd14610140578063313ce56714610170578063395093511461018e575b600080fd5b6100dc6102d6565b6040516100e99190610cfc565b60405180910390f35b61010c60048036038101906101079190610db7565b610368565b6040516101199190610e12565b60405180910390f35b61012a61038b565b6040516101379190610e3c565b60405180910390f35b61015a60048036038101906101559190610e57565b610395565b6040516101679190610e12565b60405180910390f35b6101786103c4565b6040516101859190610ec6565b60405180910390f35b6101a860048036038101906101a39190610db7565b6103cd565b6040516101b59190610e12565b60405180910390f35b6101c6610404565b6040516101d39190610e3c565b60405180910390f35b6101f660048036038101906101f19190610ee1565b61040e565b6040516102039190610e3c565b60405180910390f35b61022660048036038101906102219190610db7565b610456565b005b61023061046b565b60405161023d9190610cfc565b60405180910390f35b610260600480360381019061025b9190610db7565b6104fd565b60405161026d9190610e12565b60405180910390f35b610290600480360381019061028b9190610db7565b610574565b60405161029d9190610e12565b60405180910390f35b6102c060048036038101906102bb9190610f0e565b610597565b6040516102cd9190610e3c565b60405180910390f35b6060600380546102e590610f7d565b80601f016020809104026020016040519081016040528092919081815260200182805461031190610f7d565b801561035e5780601f106103335761010080835404028352916020019161035e565b820191906000526020600020905b81548152906001019060200180831161034157829003601f168201915b5050505050905090565b60008061037361061e565b9050610380818585610626565b600191505092915050565b6000600554905090565b6000806103a061061e565b90506103ad8582856107ef565b6103b885858561087b565b60019150509392505050565b60006012905090565b6000806103d861061e565b90506103f98185856103ea8589610597565b6103f49190610fdd565b610626565b600191505092915050565b6000600554905090565b60008060008373ffffffffffffffffffffffffffffffffffffffff1673ffffffffffffffffffffffffffffffffffffffff168152602001908152602001600020549050919050565b806005819055506104678282610afa565b5050565b60606004805461047a90610f7d565b80601f01602080910402602001604051908101604052809291908181526020018280546104a690610f7d565b80156104f35780601f106104c8576101008083540402835291602001916104f3565b820191906000526020600020905b8154815290600101906020018083116104d657829003601f168201915b5050505050905090565b60008061050861061e565b905060006105168286610597565b90508381101561055b576040517f08c379a0000000000000000000000000000000000000000000000000000000008152600401610552906110a5565b60405180910390fd5b6105688286868403610626565b60019250505092915050565b60008061057f61061e565b905061058c81858561087b565b600191505092915050565b6000600160008473ffffffffffffffffffffffffffffffffffffffff1673ffffffffffffffffffffffffffffffffffffffff16815260200190815260200160002060008373ffffffffffffffffffffffffffffffffffffffff1673ffffffffffffffffffffffffffffffffffffffff16815260200190815260200160002054905092915050565b600033905090565b600073ffffffffffffffffffffffffffffffffffffffff168373ffffffffffffffffffffffffffffffffffffffff1603610695576040517f08c379a000000000000000000000000000000000000000000000000000000000815260040161068c90611111565b60405180910390fd5b600073ffffffffffffffffffffffffffffffffffffffff168273ffffffffffffffffffffffffffffffffffffffff1603610704576040517f08c379a00000000000000000000000000000000000000000000000000000000081526004016106fb9061117d565b60405180910390fd5b80600160008573ffffffffffffffffffffffffffffffffffffffff1673ffffffffffffffffffffffffffffffffffffffff16815260200190815260200160002060008473ffffffffffffffffffffffffffffffffffffffff1673ffffffffffffffffffffffffffffffffffffffff168152602001908152602001600020819055508173ffffffffffffffffffffffffffffffffffffffff168373ffffffffffffffffffffffffffffffffffffffff167f8c5be1e5ebec7d5bd14f71427d1e84f3dd0314c0f7b2291e5b200ac8c7c3b925836040516107e29190610e3c565b60405180910390a3505050565b60006107fb8484610597565b90507fffffffffffffffffffffffffffffffffffffffffffffffffffffffffffffffff81146108755781811015610867576040517f08c379a000000000000000000000000000000000000000000000000000000000815260040161085e906111e9565b60405180910390fd5b6108748484848403610626565b5b50505050565b600073ffffffffffffffffffffffffffffffffffffffff168373ffffffffffffffffffffffffffffffffffffffff16036108ea576040517f08c379a00000000000000000000000000000000000000000000000000000000081526004016108e19061127b565b60405180910390fd5b600073ffffffffffffffffffffffffffffffffffffffff168273ffffffffffffffffffffffffffffffffffffffff1603610959576040517f08c379a0000000000000000000000000000000000000000000000000000000008152600401610950906112e7565b60405180910390fd5b610964838383610c59565b60008060008573ffffffffffffffffffffffffffffffffffffffff1673ffffffffffffffffffffffffffffffffffffffff168152602001908152602001600020549050818110156109ea576040517f08c379a00000000000000000000000000000000000000000000000000000000081526004016109e190611379565b60405180910390fd5b8181036000808673ffffffffffffffffffffffffffffffffffffffff1673ffffffffffffffffffffffffffffffffffffffff16815260200190815260200160002081905550816000808573ffffffffffffffffffffffffffffffffffffffff1673ffffffffffffffffffffffffffffffffffffffff1681526020019081526020016000206000828254610a7d9190610fdd565b925050819055508273ffffffffffffffffffffffffffffffffffffffff168473ffffffffffffffffffffffffffffffffffffffff167fddf252ad1be2c89b69c2b068fc378daa952ba7f163c4a11628f55a4df523b3ef84604051610ae19190610e3c565b60405180910390a3610af4848484610c5e565b50505050565b600073ffffffffffffffffffffffffffffffffffffffff168273ffffffffffffffffffffffffffffffffffffffff1603610b69576040517f08c379a0000000000000000000000000000000000000000000000000000000008152600401610b60906113e5565b60405180910390fd5b610b7560008383610c59565b8060026000828254610b879190610fdd565b92505081905550806000808473ffffffffffffffffffffffffffffffffffffffff1673ffffffffffffffffffffffffffffffffffffffff1681526020019081526020016000206000828254610bdc9190610fdd565b925050819055508173ffffffffffffffffffffffffffffffffffffffff16600073ffffffffffffffffffffffffffffffffffffffff167fddf252ad1be2c89b69c2b068fc378daa952ba7f163c4a11628f55a4df523b3ef83604051610c419190610e3c565b60405180910390a3610c5560008383610c5e565b5050565b505050565b505050565b600081519050919050565b600082825260208201905092915050565b60005b83811015610c9d578082015181840152602081019050610c82565b83811115610cac576000848401525b50505050565b6000601f19601f8301169050919050565b6000610cce82610c63565b610cd88185610c6e565b9350610ce8818560208601610c7f565b610cf181610cb2565b840191505092915050565b60006020820190508181036000830152610d168184610cc3565b905092915050565b600080fd5b600073ffffffffffffffffffffffffffffffffffffffff82169050919050565b6000610d4e82610d23565b9050919050565b610d5e81610d43565b8114610d6957600080fd5b50565b600081359050610d7b81610d55565b92915050565b6000819050919050565b610d9481610d81565b8114610d9f57600080fd5b50565b600081359050610db181610d8b565b92915050565b60008060408385031215610dce57610dcd610d1e565b5b6000610ddc85828601610d6c565b9250506020610ded85828601610da2565b9150509250929050565b60008115159050919050565b610e0c81610df7565b82525050565b6000602082019050610e276000830184610e03565b92915050565b610e3681610d81565b82525050565b6000602082019050610e516000830184610e2d565b92915050565b600080600060608486031215610e7057610e6f610d1e565b5b6000610e7e86828701610d6c565b9350506020610e8f86828701610d6c565b9250506040610ea086828701610da2565b9150509250925092565b600060ff82169050919050565b610ec081610eaa565b82525050565b6000602082019050610edb6000830184610eb7565b92915050565b600060208284031215610ef757610ef6610d1e565b5b6000610f0584828501610d6c565b91505092915050565b60008060408385031215610f2557610f24610d1e565b5b6000610f3385828601610d6c565b9250506020610f4485828601610d6c565b9150509250929050565b7f4e487b7100000000000000000000000000000000000000000000000000000000600052602260045260246000fd5b60006002820490506001821680610f9557607f821691505b602082108103610fa857610fa7610f4e565b5b50919050565b7f4e487b7100000000000000000000000000000000000000000000000000000000600052601160045260246000fd5b6000610fe882610d81565b9150610ff383610d81565b9250827fffffffffffffffffffffffffffffffffffffffffffffffffffffffffffffffff0382111561102857611027610fae565b5b828201905092915050565b7f45524332303a20646563726561736520616c6c6f77616e63652062656c6f772060008201527f7a65726f00000000000000000000000000000000000000000000000000000000602082015250565b600061108f602483610c6e565b915061109a82611033565b604082019050919050565b600060208201905081810360008301526110be81611082565b9050919050565b7f45524332303a20617070726f76652066726f6d207a65726f2061646472657373600082015250565b60006110fb602083610c6e565b9150611106826110c5565b602082019050919050565b6000602082019050818103600083015261112a816110ee565b9050919050565b7f45524332303a20617070726f766520746f207a65726f20616464726573730000600082015250565b6000611167601e83610c6e565b915061117282611131565b602082019050919050565b600060208201905081810360008301526111968161115a565b9050919050565b7f45524332303a20696e73756666696369656e7420616c6c6f77616e6365000000600082015250565b60006111d3601d83610c6e565b91506111de8261119d565b602082019050919050565b60006020820190508181036000830152611202816111c6565b9050919050565b7f45524332303a207472616e736665722066726f6d207a65726f2061646472657360008201527f7300000000000000000000000000000000000000000000000000000000000000602082015250565b6000611265602183610c6e565b915061127082611209565b604082019050919050565b6000602082019050818103600083015261129481611258565b9050919050565b7f45524332303a207472616e7366657220746f207a65726f206164647265737300600082015250565b60006112d1601f83610c6e565b91506112dc8261129b565b602082019050919050565b60006020820190508181036000830152611300816112c4565b9050919050565b7f45524332303a207472616e7366657220616d6f756e742065786365656420626160008201527f6c616e6365000000000000000000000000000000000000000000000000000000602082015250565b6000611363602583610c6e565b915061136e82611307565b604082019050919050565b6000602082019050818103600083015261139281611356565b9050919050565b7f45524332303a206d696e7420746f20746865207a65726f206164647265737300600082015250565b60006113cf601f83610c6e565b91506113da82611399565b602082019050919050565b600060208201905081810360008301526113fe816113c2565b905091905056fea2646970667358221220f0c5e80f6cc88ddcc416f3bf67071080e54277f32020a18b59f195defa22855264736f6c634300080d0033",
  "immutableReferences": {},
  "source": "// SPDX-License-Identifier: Unlicenced\n\npragma solidity ^0.8.0;\n\nimport \"./erc20/ERC20.sol\";\n\n// ERC20\ncontract MyToken is ERC20{\n    uint256 private _totalSupply;\n\n    constructor() ERC20(\n        \"hehe\", \"sorry\"\n    ) {}\n\n    function mintToken(address recipient, uint256 initialSupply ) public {\n        _totalSupply = initialSupply;\n\n        _mint(recipient, initialSupply);\n    }\n\n    function totalSupply() public view override returns (uint256) {\n        return _totalSupply;\n    }\n\n    function get() public view returns (uint256) {\n        return _totalSupply;\n    }\n\n}\n",
  "sourcePath": "/Users/takagihrs/Desktop/MyProject/dapp/truffle-boxed/contracts/MyContract.sol",
  "compiler": {
    "name": "solc",
    "version": "0.8.13+commit.abaa5c0e.Emscripten.clang"
  },
  "schemaVersion": "3.4.7",
  "updatedAt": "2022-04-25T09:14:01.162Z",
  "networkType": "ethereum",
  "devdoc": {
    "kind": "dev",
    "methods": {},
    "version": 1
  },
  "userdoc": {
    "kind": "user",
    "methods": {},
    "version": 1
  }
}